{
  "_format": "hh-sol-artifact-1",
  "contractName": "TodoList",
  "sourceName": "contracts/TodoList.sol",
  "abi": [
    {
      "anonymous": false,
      "inputs": [
        {
          "indexed": false,
          "internalType": "uint256",
          "name": "id",
          "type": "uint256"
        },
        {
          "indexed": false,
          "internalType": "bool",
          "name": "completed",
          "type": "bool"
        }
      ],
      "name": "TaskCompleted",
      "type": "event"
    },
    {
      "anonymous": false,
      "inputs": [
        {
          "indexed": false,
          "internalType": "uint256",
          "name": "id",
          "type": "uint256"
        },
        {
          "indexed": false,
          "internalType": "string",
          "name": "content",
          "type": "string"
        }
      ],
      "name": "TaskCreated",
      "type": "event"
    },
    {
      "inputs": [
        {
          "internalType": "uint256",
          "name": "_taskId",
          "type": "uint256"
        }
      ],
      "name": "completeTask",
      "outputs": [],
      "stateMutability": "nonpayable",
      "type": "function"
    },
    {
      "inputs": [
        {
          "internalType": "string",
          "name": "_content",
          "type": "string"
        }
      ],
      "name": "createTask",
      "outputs": [],
      "stateMutability": "nonpayable",
      "type": "function"
    },
    {
      "inputs": [],
      "name": "taskCount",
      "outputs": [
        {
          "internalType": "uint256",
          "name": "",
          "type": "uint256"
        }
      ],
      "stateMutability": "view",
      "type": "function"
    },
    {
      "inputs": [
        {
          "internalType": "uint256",
          "name": "",
          "type": "uint256"
        }
      ],
      "name": "tasks",
      "outputs": [
        {
          "internalType": "uint256",
          "name": "id",
          "type": "uint256"
        },
        {
          "internalType": "string",
          "name": "content",
          "type": "string"
        },
        {
          "internalType": "bool",
          "name": "completed",
          "type": "bool"
        }
      ],
      "stateMutability": "view",
      "type": "function"
    }
  ],
  "bytecode": "0x608060405234801561001057600080fd5b506109c8806100206000396000f3fe608060405234801561001057600080fd5b506004361061004c5760003560e01c8063111002aa146100515780638d9776721461006d578063b6cb58a51461009f578063e1e29558146100bd575b600080fd5b61006b60048036038101906100669190610436565b6100d9565b005b610087600480360381019061008291906104b5565b6101a5565b6040516100969392919061058b565b60405180910390f35b6100a7610264565b6040516100b491906105c9565b60405180910390f35b6100d760048036038101906100d291906104b5565b61026a565b005b6000808154809291906100eb90610613565b9190505550604051806060016040528060005481526020018281526020016000151581525060016000805481526020019081526020016000206000820151816000015560208201518160010190816101439190610867565b5060408201518160020160006101000a81548160ff0219169083151502179055509050507fa5ed9e6226c584326505694539c95cb0e3238ae09bcda5a65c00bbfdab1c66626000548260405161019a929190610939565b60405180910390a150565b60016020528060005260406000206000915090508060000154908060010180546101ce9061068a565b80601f01602080910402602001604051908101604052809291908181526020018280546101fa9061068a565b80156102475780601f1061021c57610100808354040283529160200191610247565b820191906000526020600020905b81548152906001019060200180831161022a57829003601f168201915b5050505050908060020160009054906101000a900460ff16905083565b60005481565b600060016000838152602001908152602001600020905060018160020160006101000a81548160ff0219169083151502179055507fe21fa966ca5cd02748c0752352d18c48165e61cb55b4c29cccf924b5a95fcff18260016040516102d0929190610969565b60405180910390a15050565b6000604051905090565b600080fd5b600080fd5b600080fd5b600080fd5b6000601f19601f8301169050919050565b7f4e487b7100000000000000000000000000000000000000000000000000000000600052604160045260246000fd5b610343826102fa565b810181811067ffffffffffffffff821117156103625761036161030b565b5b80604052505050565b60006103756102dc565b9050610381828261033a565b919050565b600067ffffffffffffffff8211156103a1576103a061030b565b5b6103aa826102fa565b9050602081019050919050565b82818337600083830152505050565b60006103d96103d484610386565b61036b565b9050828152602081018484840111156103f5576103f46102f5565b5b6104008482856103b7565b509392505050565b600082601f83011261041d5761041c6102f0565b5b813561042d8482602086016103c6565b91505092915050565b60006020828403121561044c5761044b6102e6565b5b600082013567ffffffffffffffff81111561046a576104696102eb565b5b61047684828501610408565b91505092915050565b6000819050919050565b6104928161047f565b811461049d57600080fd5b50565b6000813590506104af81610489565b92915050565b6000602082840312156104cb576104ca6102e6565b5b60006104d9848285016104a0565b91505092915050565b6104eb8161047f565b82525050565b600081519050919050565b600082825260208201905092915050565b60005b8381101561052b578082015181840152602081019050610510565b60008484015250505050565b6000610542826104f1565b61054c81856104fc565b935061055c81856020860161050d565b610565816102fa565b840191505092915050565b60008115159050919050565b61058581610570565b82525050565b60006060820190506105a060008301866104e2565b81810360208301526105b28185610537565b90506105c1604083018461057c565b949350505050565b60006020820190506105de60008301846104e2565b92915050565b7f4e487b7100000000000000000000000000000000000000000000000000000000600052601160045260246000fd5b600061061e8261047f565b91507fffffffffffffffffffffffffffffffffffffffffffffffffffffffffffffffff82036106505761064f6105e4565b5b600182019050919050565b7f4e487b7100000000000000000000000000000000000000000000000000000000600052602260045260246000fd5b600060028204905060018216806106a257607f821691505b6020821081036106b5576106b461065b565b5b50919050565b60008190508160005260206000209050919050565b60006020601f8301049050919050565b600082821b905092915050565b60006008830261071d7fffffffffffffffffffffffffffffffffffffffffffffffffffffffffffffffff826106e0565b61072786836106e0565b95508019841693508086168417925050509392505050565b6000819050919050565b600061076461075f61075a8461047f565b61073f565b61047f565b9050919050565b6000819050919050565b61077e83610749565b61079261078a8261076b565b8484546106ed565b825550505050565b600090565b6107a761079a565b6107b2818484610775565b505050565b5b818110156107d6576107cb60008261079f565b6001810190506107b8565b5050565b601f82111561081b576107ec816106bb565b6107f5846106d0565b81016020851015610804578190505b610818610810856106d0565b8301826107b7565b50505b505050565b600082821c905092915050565b600061083e60001984600802610820565b1980831691505092915050565b6000610857838361082d565b9150826002028217905092915050565b610870826104f1565b67ffffffffffffffff8111156108895761088861030b565b5b610893825461068a565b61089e8282856107da565b600060209050601f8311600181146108d157600084156108bf578287015190505b6108c9858261084b565b865550610931565b601f1984166108df866106bb565b60005b82811015610907578489015182556001820191506020850194506020810190506108e2565b868310156109245784890151610920601f89168261082d565b8355505b6001600288020188555050505b505050505050565b600060408201905061094e60008301856104e2565b81810360208301526109608184610537565b90509392505050565b600060408201905061097e60008301856104e2565b61098b602083018461057c565b939250505056fea2646970667358221220985116f688bbbdf08c34e957c4bb04a530d2e3e208b840a0f0643ecf00333fe564736f6c63430008120033",
  "linkReferences": {},
  "deployedLinkReferences": {}
}